{
  "contractName": "DeezExchanger",
  "abi": [
    {
      "inputs": [
        {
          "internalType": "contract Deez",
          "name": "_deez",
          "type": "address"
        }
      ],
      "payable": false,
      "stateMutability": "nonpayable",
      "type": "constructor"
    },
    {
      "anonymous": false,
      "inputs": [
        {
          "indexed": false,
          "internalType": "address",
          "name": "buyer",
          "type": "address"
        },
        {
          "indexed": false,
          "internalType": "address",
          "name": "deez",
          "type": "address"
        },
        {
          "indexed": false,
          "internalType": "uint256",
          "name": "amount",
          "type": "uint256"
        }
      ],
      "name": "PurchaseSuccessful",
      "type": "event"
    },
    {
      "anonymous": false,
      "inputs": [
        {
          "indexed": false,
          "internalType": "address",
          "name": "seller",
          "type": "address"
        },
        {
          "indexed": false,
          "internalType": "address",
          "name": "deez",
          "type": "address"
        },
        {
          "indexed": false,
          "internalType": "uint256",
          "name": "amount",
          "type": "uint256"
        }
      ],
      "name": "SellSuccessful",
      "type": "event"
    },
    {
      "constant": true,
      "inputs": [],
      "name": "deez",
      "outputs": [
        {
          "internalType": "contract Deez",
          "name": "",
          "type": "address"
        }
      ],
      "payable": false,
      "stateMutability": "view",
      "type": "function"
    },
    {
      "constant": true,
      "inputs": [],
      "name": "exchangeRate",
      "outputs": [
        {
          "internalType": "uint256",
          "name": "",
          "type": "uint256"
        }
      ],
      "payable": false,
      "stateMutability": "view",
      "type": "function"
    },
    {
      "constant": false,
      "inputs": [],
      "name": "buyDeez",
      "outputs": [],
      "payable": true,
      "stateMutability": "payable",
      "type": "function"
    },
    {
      "constant": false,
      "inputs": [
        {
          "internalType": "uint256",
          "name": "deezAmount",
          "type": "uint256"
        }
      ],
      "name": "sellDeez",
      "outputs": [],
      "payable": false,
      "stateMutability": "nonpayable",
      "type": "function"
    }
  ],
  "bytecode": "0x60806040526103e860015534801561001657600080fd5b506040516107c73803806107c78339818101604052602081101561003957600080fd5b8101908080519060200190929190505050806000806101000a81548173ffffffffffffffffffffffffffffffffffffffff021916908373ffffffffffffffffffffffffffffffffffffffff1602179055505061072d8061009a6000396000f3fe60806040526004361061003f5760003560e01c806310c316fb146100445780633ba0b9a91461004e57806368f1628d1461007957806378865989146100d0575b600080fd5b61004c61010b565b005b34801561005a57600080fd5b5061006361041a565b6040518082815260200191505060405180910390f35b34801561008557600080fd5b5061008e610420565b604051808273ffffffffffffffffffffffffffffffffffffffff1673ffffffffffffffffffffffffffffffffffffffff16815260200191505060405180910390f35b3480156100dc57600080fd5b50610109600480360360208110156100f357600080fd5b8101908080359060200190929190505050610445565b005b6000670de0b6b3a764000060015434028161012257fe5b049050806000809054906101000a900473ffffffffffffffffffffffffffffffffffffffff1673ffffffffffffffffffffffffffffffffffffffff166370a08231306040518263ffffffff1660e01b8152600401808273ffffffffffffffffffffffffffffffffffffffff1673ffffffffffffffffffffffffffffffffffffffff16815260200191505060206040518083038186803b1580156101c457600080fd5b505afa1580156101d8573d6000803e3d6000fd5b505050506040513d60208110156101ee57600080fd5b81019080805190602001909291905050501015610273576040517f08c379a00000000000000000000000000000000000000000000000000000000081526004018080602001828103825260178152602001807f45786368616e676572206f7574206f6620746f6b656e7300000000000000000081525060200191505060405180910390fd5b6000809054906101000a900473ffffffffffffffffffffffffffffffffffffffff1673ffffffffffffffffffffffffffffffffffffffff1663a9059cbb33836040518363ffffffff1660e01b8152600401808373ffffffffffffffffffffffffffffffffffffffff1673ffffffffffffffffffffffffffffffffffffffff16815260200182815260200192505050602060405180830381600087803b15801561031b57600080fd5b505af115801561032f573d6000803e3d6000fd5b505050506040513d602081101561034557600080fd5b8101908080519060200190929190505050507fcc1aa1f151f269c4fe340a8bb57624e2acb52dface725b9e0f36c3d1fdda5e1d336000809054906101000a900473ffffffffffffffffffffffffffffffffffffffff1683604051808473ffffffffffffffffffffffffffffffffffffffff1673ffffffffffffffffffffffffffffffffffffffff1681526020018373ffffffffffffffffffffffffffffffffffffffff1673ffffffffffffffffffffffffffffffffffffffff168152602001828152602001935050505060405180910390a150565b60015481565b6000809054906101000a900473ffffffffffffffffffffffffffffffffffffffff1681565b6000670de0b6b3a7640000600154838161045b57fe5b04029050804710156104d5576040517f08c379a00000000000000000000000000000000000000000000000000000000081526004018080602001828103825260148152602001807f45786368616e676572206f7574206f662065746800000000000000000000000081525060200191505060405180910390fd5b6000809054906101000a900473ffffffffffffffffffffffffffffffffffffffff1673ffffffffffffffffffffffffffffffffffffffff166323b872dd3330856040518463ffffffff1660e01b8152600401808473ffffffffffffffffffffffffffffffffffffffff1673ffffffffffffffffffffffffffffffffffffffff1681526020018373ffffffffffffffffffffffffffffffffffffffff1673ffffffffffffffffffffffffffffffffffffffff1681526020018281526020019350505050602060405180830381600087803b1580156105b157600080fd5b505af11580156105c5573d6000803e3d6000fd5b505050506040513d60208110156105db57600080fd5b8101908080519060200190929190505050503373ffffffffffffffffffffffffffffffffffffffff166108fc829081150290604051600060405180830381858888f19350505050158015610633573d6000803e3d6000fd5b507f07fcae2a4f2b736ed217db43b2c009a87ae9cba237a1ec910735ce85c39ec068336000809054906101000a900473ffffffffffffffffffffffffffffffffffffffff1684604051808473ffffffffffffffffffffffffffffffffffffffff1673ffffffffffffffffffffffffffffffffffffffff1681526020018373ffffffffffffffffffffffffffffffffffffffff1673ffffffffffffffffffffffffffffffffffffffff168152602001828152602001935050505060405180910390a1505056fea265627a7a72315820af72288cc961463b73b690272f211275e6e9a0d8560046cb766b8f46dcaa4b6964736f6c63430005100032",
  "source": "// SPDX-License-Identifier: MIT\npragma solidity ^0.5.0;\n\nimport \"./Deez.sol\";\n\ncontract DeezExchanger {\n  Deez public deez;\n  uint public exchangeRate = 1000;\n\n  event PurchaseSuccessful(address buyer, address deez, uint256 amount);\n\n  event SellSuccessful(address seller, address deez, uint256 amount);\n\n  constructor(Deez _deez) public {\n    deez = _deez;\n  }\n\n  //TODO: use wei instead of ether bc solidity is retarded\n  function buyDeez() public payable {\n    uint256 deezAmount = msg.value * exchangeRate / 1 ether;\n    require(deez.balanceOf(address(this)) >= deezAmount, \"Exchanger out of tokens\");\n    deez.transfer(msg.sender, deezAmount);\n    emit PurchaseSuccessful(msg.sender, address(deez), deezAmount);\n  }\n\n  function sellDeez(uint256 deezAmount) public {\n    uint256 ethAmount = deezAmount / exchangeRate * 1 ether;\n    require(address(this).balance >= ethAmount, \"Exchanger out of eth\");\n    deez.transferFrom(msg.sender, address(this), deezAmount);\n    msg.sender.transfer(ethAmount);\n    emit SellSuccessful(msg.sender, address(deez), deezAmount);\n  }\n}",
  "sourcePath": "/home/mark/repo/tailwind-deez/contracts/DeezExchanger.sol",
  "compiler": {
    "name": "solc",
    "version": "0.5.16+commit.9c3226ce.Emscripten.clang"
  },
  "schemaVersion": "3.4.3",
  "updatedAt": "2021-10-27T22:46:09.678Z",
  "networkType": "ethereum",
  "devdoc": {
    "methods": {}
  },
  "userdoc": {
    "methods": {}
  }
}